{
  "_format": "hh-sol-artifact-1",
  "contractName": "CoursePaymentVault",
  "sourceName": "contracts/CoursePaymentVault.sol",
  "abi": [
    {
      "inputs": [
        {
          "internalType": "address",
          "name": "_usdcToken",
          "type": "address"
        },
        {
          "internalType": "address",
          "name": "_adminWallet",
          "type": "address"
        }
      ],
      "stateMutability": "nonpayable",
      "type": "constructor"
    },
    {
      "anonymous": false,
      "inputs": [
        {
          "indexed": true,
          "internalType": "address",
          "name": "user",
          "type": "address"
        },
        {
          "indexed": false,
          "internalType": "uint256",
          "name": "courseId",
          "type": "uint256"
        },
        {
          "indexed": false,
          "internalType": "uint256",
          "name": "amount",
          "type": "uint256"
        }
      ],
      "name": "Paid",
      "type": "event"
    },
    {
      "anonymous": false,
      "inputs": [
        {
          "indexed": true,
          "internalType": "address",
          "name": "recipient",
          "type": "address"
        },
        {
          "indexed": false,
          "internalType": "uint256",
          "name": "amount",
          "type": "uint256"
        }
      ],
      "name": "Withdrawn",
      "type": "event"
    },
    {
      "inputs": [],
      "name": "adminWallet",
      "outputs": [
        {
          "internalType": "address",
          "name": "",
          "type": "address"
        }
      ],
      "stateMutability": "view",
      "type": "function"
    },
    {
      "inputs": [],
      "name": "balance",
      "outputs": [
        {
          "internalType": "uint256",
          "name": "",
          "type": "uint256"
        }
      ],
      "stateMutability": "view",
      "type": "function"
    },
    {
      "inputs": [
        {
          "internalType": "uint256",
          "name": "courseId",
          "type": "uint256"
        },
        {
          "internalType": "uint256",
          "name": "amount",
          "type": "uint256"
        }
      ],
      "name": "pay",
      "outputs": [],
      "stateMutability": "nonpayable",
      "type": "function"
    },
    {
      "inputs": [],
      "name": "usdcToken",
      "outputs": [
        {
          "internalType": "contract IERC20",
          "name": "",
          "type": "address"
        }
      ],
      "stateMutability": "view",
      "type": "function"
    },
    {
      "inputs": [],
      "name": "withdraw",
      "outputs": [],
      "stateMutability": "nonpayable",
      "type": "function"
    }
  ],
  "bytecode": "0x608060405234801561001057600080fd5b50604051610c68380380610c688339818101604052810190610032919061011d565b806000806101000a81548173ffffffffffffffffffffffffffffffffffffffff021916908373ffffffffffffffffffffffffffffffffffffffff16021790555081600160006101000a81548173ffffffffffffffffffffffffffffffffffffffff021916908373ffffffffffffffffffffffffffffffffffffffff160217905550505061015d565b600080fd5b600073ffffffffffffffffffffffffffffffffffffffff82169050919050565b60006100ea826100bf565b9050919050565b6100fa816100df565b811461010557600080fd5b50565b600081519050610117816100f1565b92915050565b60008060408385031215610134576101336100ba565b5b600061014285828601610108565b925050602061015385828601610108565b9150509250929050565b610afc8061016c6000396000f3fe608060405234801561001057600080fd5b50600436106100575760003560e01c806311eac8551461005c57806336b19cd71461007a5780633ccfd60b14610098578063b69ef8a8146100a2578063ef48eee6146100c0575b600080fd5b6100646100dc565b604051610071919061066d565b60405180910390f35b610082610102565b60405161008f91906106a9565b60405180910390f35b6100a0610126565b005b6100aa6103cd565b6040516100b791906106dd565b60405180910390f35b6100da60048036038101906100d59190610729565b610470565b005b600160009054906101000a900473ffffffffffffffffffffffffffffffffffffffff1681565b60008054906101000a900473ffffffffffffffffffffffffffffffffffffffff1681565b60008054906101000a900473ffffffffffffffffffffffffffffffffffffffff1673ffffffffffffffffffffffffffffffffffffffff163373ffffffffffffffffffffffffffffffffffffffff16146101b4576040517f08c379a00000000000000000000000000000000000000000000000000000000081526004016101ab906107c6565b60405180910390fd5b6000600160009054906101000a900473ffffffffffffffffffffffffffffffffffffffff1673ffffffffffffffffffffffffffffffffffffffff166370a08231306040518263ffffffff1660e01b815260040161021191906106a9565b602060405180830381865afa15801561022e573d6000803e3d6000fd5b505050506040513d601f19601f8201168201806040525081019061025291906107fb565b905060008111610297576040517f08c379a000000000000000000000000000000000000000000000000000000000815260040161028e90610874565b60405180910390fd5b6000600160009054906101000a900473ffffffffffffffffffffffffffffffffffffffff1673ffffffffffffffffffffffffffffffffffffffff1663a9059cbb33846040518363ffffffff1660e01b81526004016102f6929190610894565b6020604051808303816000875af1158015610315573d6000803e3d6000fd5b505050506040513d601f19601f8201168201806040525081019061033991906108f5565b90508061037b576040517f08c379a00000000000000000000000000000000000000000000000000000000081526004016103729061096e565b60405180910390fd5b3373ffffffffffffffffffffffffffffffffffffffff167f7084f5476618d8e60b11ef0d7d3f06914655adb8793e28ff7f018d4c76d505d5836040516103c191906106dd565b60405180910390a25050565b6000600160009054906101000a900473ffffffffffffffffffffffffffffffffffffffff1673ffffffffffffffffffffffffffffffffffffffff166370a08231306040518263ffffffff1660e01b815260040161042a91906106a9565b602060405180830381865afa158015610447573d6000803e3d6000fd5b505050506040513d601f19601f8201168201806040525081019061046b91906107fb565b905090565b600081116104b3576040517f08c379a00000000000000000000000000000000000000000000000000000000081526004016104aa906109da565b60405180910390fd5b6000600160009054906101000a900473ffffffffffffffffffffffffffffffffffffffff1673ffffffffffffffffffffffffffffffffffffffff166323b872dd3330856040518463ffffffff1660e01b8152600401610514939291906109fa565b6020604051808303816000875af1158015610533573d6000803e3d6000fd5b505050506040513d601f19601f8201168201806040525081019061055791906108f5565b905080610599576040517f08c379a000000000000000000000000000000000000000000000000000000000815260040161059090610a7d565b60405180910390fd5b3373ffffffffffffffffffffffffffffffffffffffff167fdf9a51129930649214df58f542322c245372c6f2fa6fc3c9b40d927c597cd23084846040516105e1929190610a9d565b60405180910390a2505050565b600073ffffffffffffffffffffffffffffffffffffffff82169050919050565b6000819050919050565b600061063361062e610629846105ee565b61060e565b6105ee565b9050919050565b600061064582610618565b9050919050565b60006106578261063a565b9050919050565b6106678161064c565b82525050565b6000602082019050610682600083018461065e565b92915050565b6000610693826105ee565b9050919050565b6106a381610688565b82525050565b60006020820190506106be600083018461069a565b92915050565b6000819050919050565b6106d7816106c4565b82525050565b60006020820190506106f260008301846106ce565b92915050565b600080fd5b610706816106c4565b811461071157600080fd5b50565b600081359050610723816106fd565b92915050565b600080604083850312156107405761073f6106f8565b5b600061074e85828601610714565b925050602061075f85828601610714565b9150509250929050565b600082825260208201905092915050565b7f4e6f74207468652061646d696e00000000000000000000000000000000000000600082015250565b60006107b0600d83610769565b91506107bb8261077a565b602082019050919050565b600060208201905081810360008301526107df816107a3565b9050919050565b6000815190506107f5816106fd565b92915050565b600060208284031215610811576108106106f8565b5b600061081f848285016107e6565b91505092915050565b7f5468657265206973206e6f2066756e6420746f20776974686472617700000000600082015250565b600061085e601c83610769565b915061086982610828565b602082019050919050565b6000602082019050818103600083015261088d81610851565b9050919050565b60006040820190506108a9600083018561069a565b6108b660208301846106ce565b9392505050565b60008115159050919050565b6108d2816108bd565b81146108dd57600080fd5b50565b6000815190506108ef816108c9565b92915050565b60006020828403121561090b5761090a6106f8565b5b6000610919848285016108e0565b91505092915050565b7f5769746864726177616c206661696c6564000000000000000000000000000000600082015250565b6000610958601183610769565b915061096382610922565b602082019050919050565b600060208201905081810360008301526109878161094b565b9050919050565b7f496e76616c696420616d6f756e74000000000000000000000000000000000000600082015250565b60006109c4600e83610769565b91506109cf8261098e565b602082019050919050565b600060208201905081810360008301526109f3816109b7565b9050919050565b6000606082019050610a0f600083018661069a565b610a1c602083018561069a565b610a2960408301846106ce565b949350505050565b7f5472616e73666572206661696c65640000000000000000000000000000000000600082015250565b6000610a67600f83610769565b9150610a7282610a31565b602082019050919050565b60006020820190508181036000830152610a9681610a5a565b9050919050565b6000604082019050610ab260008301856106ce565b610abf60208301846106ce565b939250505056fea2646970667358221220efe3dec77d277d591ab91dc00a6df1551a1b26d7cd43773d5e9443c38d88239f64736f6c634300081c0033",
  "linkReferences": {},
  "deployedLinkReferences": {}
}